## Transaction

- <a href="#tx-metadata">Transaction information</a>  
- <a href="#tx-distribute">Transaction Distribute Test</a>
- <a href="#tx-count">Block`s tx count</a>
- <a href="#tx-nonce">Tx nonce test</a>

---  

<div id="tx-metadata"><div>  

- hash  
; RLP 인코딩 + 해시  
(nonce, gasPrice, gasLimit, to, value, data, v, r, s
v에 chainId가 변수에 포함 됨)   

- nonce
; 발신자에 의해 보내진 트랜잭션의 개수 0으로 시작  

- transactionIndex  
; 블록 내 트랜잭션 인덱스  

- from  
; 발신자  

- to  
; 수신자  

- value  
; 전송할 이더 양(WEI)  

- gasPrice  
; 트랜잭션의 발신자가 각 실행 단계에서 지급하는 비용인 가스 가격(WEI)  

- gasLimit
; 트랜잭션 수행 시 지급 가능한 최대 범위  

- input  
; 옵션 필드로서 메시지 호출 시 매개변수 등이 전달됨  

- V, R, S  
; 트랜잭션의 발신자를 식별하기 위한 ECDSA 전자 서명을 만드는 데 사용되는 값  
V는 1바이트로 ECDSA가 복원한 공개 키 4개 중 어떤 공개 키를 사용할지를 지정한 값이며,  
R과 S는 각각 32바이트로 이루어진 서명 데이터  

> Tx sample  

```
{
  "hash": "0xcef4f3bd08d7e88f3e3c94cb72b06b62e8cf01966e94221b80c9e1bf1cdc0274",
  "nonce": "0x234c8",
  "blockHash": "0x0d63b941bf33febdc7722cd288558fc6721294d7e07f3176557b4fda05e12ca2",
  "blockNumber": "0x30cb48",
  "transactionIndex": "0x1",
  "from": "0xdc8f20170c0946accf9627b3eb1513cfd1c0499f",
  "to": "0x9c8c8bdda7f2411ea2dc2ca007f5ae6ec427bb50",
  "value": "0x0",
  "gasPrice": "0x4a817c800",
  "gas": "0x30d40",
  "input": "0x38bbfa50a5ebcc7d170000375239a7d0ffffa4935256a852669765c7790c4a29112b450e000000000000000000000000000000000000000000000000000000000000006000000000000000000000000000000000000000000000000000000000000000a00000000000000000000000000000000000000000000000000000000000000007c229033a7f10cb0000000000000000000000000000000000000000000000000000000000000000000000000000000000000000000000000000000000000001c14c50010498c36fc999f7a37ffffe7e4207142d9f708b96f190cfaed75133dba388ac694c2f6db039f926344c918a1d96142a95c332a5403b21e94953a9c75bc27d4290a33044022003bd07a86cb31b9beabbeefa55f9343fdff77afd840da1a43a714948c32e70d1022004f86513ff6689c5553599ccc60da62e063411e484e250545f844a0ba3d1e57ffd94fa71bc0ba10d39d464d0d8f465efeef0a2764e3887fcc9df41ded20f505c546bd9aa8ccb9855318a2fa75c6f0fd0d78dd3139c8ccf668359c818f0118b3a0000000000000000072e49cc4fe778f2e4b03c73427e80265145d0730df32d6657a534d897ea2abeb93045022100e408953234271edfbe6937885d2296d34497ccb05d9acb9a2f2b394976bdfa4e02204b7a97010843c184b1f3846125e8e7235890ccafbc8b44ac4dfe45baff1c636804def38033713f0c5b3bea0f0eeb027f6f50936fe535f841ef1fe305d4fea55884d9a251254e6256c896d4331586ff55449cadb48eddb4470aed039144741e87a1304402206d069ed4f97f6a85f472093c3d47625d260795156e6160b9affb487bef04994f02201677849756be731dd152396bf0903dc294ba37120e449024ef8faaaa4c3cec4000000000000000000000000000000000000000000000000000000000000000",
  "publicKey": "0x2531aacd3ff3b4ada135e10b2031aaf69024a10eb3a0062863a9cc07fda94148cad8866e8548431eb84764e2a400a1297d519afe26d909bca0910eb303905fe0",
  "raw": "0xf9030e830234c88504a817c80083030d40949c8c8bdda7f2411ea2dc2ca007f5ae6ec427bb5080b902a438bbfa50a5ebcc7d170000375239a7d0ffffa4935256a852669765c7790c4a29112b450e000000000000000000000000000000000000000000000000000000000000006000000000000000000000000000000000000000000000000000000000000000a00000000000000000000000000000000000000000000000000000000000000007c229033a7f10cb0000000000000000000000000000000000000000000000000000000000000000000000000000000000000000000000000000000000000001c14c50010498c36fc999f7a37ffffe7e4207142d9f708b96f190cfaed75133dba388ac694c2f6db039f926344c918a1d96142a95c332a5403b21e94953a9c75bc27d4290a33044022003bd07a86cb31b9beabbeefa55f9343fdff77afd840da1a43a714948c32e70d1022004f86513ff6689c5553599ccc60da62e063411e484e250545f844a0ba3d1e57ffd94fa71bc0ba10d39d464d0d8f465efeef0a2764e3887fcc9df41ded20f505c546bd9aa8ccb9855318a2fa75c6f0fd0d78dd3139c8ccf668359c818f0118b3a0000000000000000072e49cc4fe778f2e4b03c73427e80265145d0730df32d6657a534d897ea2abeb93045022100e408953234271edfbe6937885d2296d34497ccb05d9acb9a2f2b394976bdfa4e02204b7a97010843c184b1f3846125e8e7235890ccafbc8b44ac4dfe45baff1c636804def38033713f0c5b3bea0f0eeb027f6f50936fe535f841ef1fe305d4fea55884d9a251254e6256c896d4331586ff55449cadb48eddb4470aed039144741e87a1304402206d069ed4f97f6a85f472093c3d47625d260795156e6160b9affb487bef04994f02201677849756be731dd152396bf0903dc294ba37120e449024ef8faaaa4c3cec40000000000000000000000000000000000000000000000000000000000000001ba09a6b97081169fd0acaece184b18622dd804c9534b37572aa08680c4ac9515ad2a024039afb5d7f55a019fab4a8160274ae6cf23e86769590afcf8086212fe1fdb0",
  "r": "0x9a6b97081169fd0acaece184b18622dd804c9534b37572aa08680c4ac9515ad2",
  "s": "0x24039afb5d7f55a019fab4a8160274ae6cf23e86769590afcf8086212fe1fdb0",
  "v": 27
}
```   

- PostState(postTxState)
; 트랜잭션 처리 후의 상태 정보  

- status  
; 트랜잭션 처리 결과 실패(0x0) / 성공(0x1)  

- cumulativeGasUsed  
; 해당 트랜잭션과 리시트를 포함하고 있는 블록에서 사용한 누적 가스 비용  

- logsBloom  
; Logs에 저장된 로그 정보들을 빠르게 검색하는 데 사용하기 위한 블룸 필터  


> tx receipt sample  

```
{
  "blockHash" : 0x50f0d0fc047ba1c23073d52364941362a75cdcd4a9a3eb892eb4b8a8eeb3e4ba,
  "blockNumber" : 0x2e3086,
  "contractAddress" : ,
  "cumulativeGasUsed" : 0x5208,
  "from" : 0x004ec07d2329997267ec62b4166639513386f32e,
  "gasUsed" : 0x5208,
  "logs" : -[
  ],
  "logsBloom" : 0x00000000000000000000000000000000000000000000000000000000000000000000000000000000000000000000000000000000000000000000000000000000000000000000000000000000000000000000000000000000000000000000000000000000000000000000000000000000000000000000000000000000000000000000000000000000000000000000000000000000000000000000000000000000000000000000000000000000000000000000000000000000000000000000000000000000000000000000000000000000000000000000000000000000000000000000000000000000000000000000000000000000000000000000000000000000,
  "root" : ,
  "status" : 0x1,
  "to" : 0x000000000000000000000000000000000000dead,
  "transactionHash" : 0x4e2eeb6f28ba38b50a5a2b5020dbc2f942f070d433f6a87cf369750407b90a4e,
  "transactionIndex" : 0x0
}
```

---  

<div id="tx-distribute"><div>  

---  


<div id="tx-count"></div>  

## Block`s tx count  

- step duration : 15s
- Change genesis gasLimit 0x5B8D80 (6000000) => 23C34600 (600000000)  
- Send txns  

> Result  

```
GasLimit :: 0x5B8D80 (6000000)
## Best block : 8
## Block Num : 0, block.gasLimit : 6000000, block.gasUsed : 0, tx`s gasUsed : 0, tr`s gas : 0,  txCount : 0, gasLimit.compareTo(gasUsed) : 1
## Block Num : 1, block.gasLimit : 5994142, block.gasUsed : 5061000, tx`s gasUsed : 226540000, tr`s gas : 5061000,  txCount : 241
## Block Num : 2, block.gasLimit : 5988290, block.gasUsed : 5061000, tx`s gasUsed : 226540000, tr`s gas : 5061000,  txCount : 241
## Block Num : 3, block.gasLimit : 5982444, block.gasUsed : 5061000, tx`s gasUsed : 226540000, tr`s gas : 5061000,  txCount : 241
## Block Num : 4, block.gasLimit : 5976603, block.gasUsed : 5040000, tx`s gasUsed : 225600000, tr`s gas : 5040000,  txCount : 240
## Block Num : 5, block.gasLimit : 5970768, block.gasUsed : 5040000, tx`s gasUsed : 225600000, tr`s gas : 5040000,  txCount : 240
## Block Num : 6, block.gasLimit : 5964939, block.gasUsed : 5040000, tx`s gasUsed : 225600000, tr`s gas : 5040000,  txCount : 240
## Block Num : 7, block.gasLimit : 5959115, block.gasUsed : 5040000, tx`s gasUsed : 225600000, tr`s gas : 5040000,  txCount : 240


GasLimit :: 23C34600 (600000000)

## Block Num : 0, block.gasLimit : 600000000, block.gasUsed : 0, tx`s gasUsed : 0, tr`s gas : 0,  txCount : 0, gasLimit.compareTo(gasUsed) : 1
## Block Num : 1, block.gasLimit : 599414064, block.gasUsed : 1071000, tx`s gasUsed : 47940000, tr`s gas : 1071000,  txCount : 51, gasLimit.compareTo(gasUsed) : 1
## Block Num : 2, block.gasLimit : 598828700, block.gasUsed : 6573000, tx`s gasUsed : 294220000, tr`s gas : 6573000,  txCount : 313, gasLimit.compareTo(gasUsed) : 1
## Block Num : 3, block.gasLimit : 598243908, block.gasUsed : 6783000, tx`s gasUsed : 303620000, tr`s gas : 6783000,  txCount : 323, gasLimit.compareTo(gasUsed) : 1
## Block Num : 4, block.gasLimit : 597659687, block.gasUsed : 6657000, tx`s gasUsed : 297980000, tr`s gas : 6657000,  txCount : 317, gasLimit.compareTo(gasUsed) : 1
## Block Num : 5, block.gasLimit : 597076036, block.gasUsed : 6657000, tx`s gasUsed : 297980000, tr`s gas : 6657000,  txCount : 317, gasLimit.compareTo(gasUsed) : 1
## Block Num : 6, block.gasLimit : 596492955, block.gasUsed : 6888000, tx`s gasUsed : 308320000, tr`s gas : 6888000,  txCount : 328, gasLimit.compareTo(gasUsed) : 1
## Block Num : 7, block.gasLimit : 595910444, block.gasUsed : 6930000, tx`s gasUsed : 310200000, tr`s gas : 6930000,  txCount : 330, gasLimit.compareTo(gasUsed) : 1
```

---  

<div id="tx-nonce"></div>  

## Transaction Nonce Test

> Test Case  

```
A -> B 에게 100000 전송
B -> C 에게 100000 전송
```  
