## Index  

- <a href="#block">Block</a>


<div id="block"></div>  

## Block  

> web3 json result  

```
{
  "number": "0x30cb48",
  "hash": "0x0d63b941bf33febdc7722cd288558fc6721294d7e07f3176557b4fda05e12ca2",
  "parentHash": "0x66d1d7ec930efb212c966e0b5df181cc1f8da1ea76fedeffb85e20afbfcc9858",
  "nonce": "0x3022369609608d7c",
  "sha3Uncles": "0x20833f98ff7b620cc4ed5bbb783bd33643672fb8fabfefacdcd35705a8e6dd13",
  "logsBloom": "0x00000000000000000000000000000000000000000000000000000000000000000000000000000000000000000000000000000000000000000000000000000000000000000000000000000000000000000000000000000000000000000000000000000000000000000000000000000000000000000000000000000000000000000000000000000000000000000000000000000000000000000000000000000000000000000000000000000000000000000000000000000000000000000000000000000000000000000000000000000000000000000000000000000000000000000000000000000000000000000000000000000000000000000000000000000000",
  "transactionsRoot": "0xee4a0a3d0d2dcbbee2bc20a7bbec96e53e9a16ab6a1d23328819f394033be920",
  "stateRoot": "0x5d1638646d48f60a83df70972889a0fdfbb3a6848d2e0e24f89ccc2fc9c057da",
  "receiptsRoot": "0xe4499eab84225510355940ad7df52e2c1ee694fd065a5f2ff2d32287d70832e4",
  "author": "0x7097f41f1c1847d52407c629d0e0ae0fdd24fd58",
  "miner": "0x7097f41f1c1847d52407c629d0e0ae0fdd24fd58",
  "mixHash": "0x5c8ad4d30b3dbdd91fccaa147753f13ee1dd023c4ed062c86bc90b0c8535bf47",
  "difficulty": "0x1392b503",
  "totalDifficulty": "0x1d81e9b4e56c14",
  "extraData": "0xd783010801846765746887676f312e392e34856c696e7578",
  "size": "0xc65",
  "gasLimit": "0x47c970",
  "gasUsed": "0x9171d",
  "timestamp": "0x5af299f0",
  "transactions": [
    {
      "hash": "0x232126e70188c365df09c9c8aeb23d6d3cfe65510ad2ad04d44117ce22d165d2",
      "nonce": "0xef",
      "blockHash": "0x0d63b941bf33febdc7722cd288558fc6721294d7e07f3176557b4fda05e12ca2",
      "blockNumber": "0x30cb48",
      "transactionIndex": "0x0",
      "from": "0xafb03da4afa956ebf5cf090bf0be96745050d21c",
      "value": "0x0",
      "gasPrice": "0x174876e800",
      "gas": "0x3d0900",
      "input": "0x6060604052612710600255336000806101000a81548173ffffffffffffffffffffffffffffffffffffffff021916908373ffffffffffffffffffffffffffffffffffffffff160217905550610469806100596000396000f300606060405260043610610062576000357c0100000000000000000000000000000000000000000000000000000000900463ffffffff1680638da5cb5b14610067578063cc823f54146100bc578063f2fde38b146100e5578063f48ee1ef1461011e575b600080fd5b341561007257600080fd5b61007a610193565b604051808273ffffffffffffffffffffffffffffffffffffffff1673ffffffffffffffffffffffffffffffffffffffff16815260200191505060405180910390f35b34156100c757600080fd5b6100cf6101b8565b6040518082815260200191505060405180910390f35b34156100f057600080fd5b61011c600480803573ffffffffffffffffffffffffffffffffffffffff169060200190919050506101c0565b005b341561012957600080fd5b610179600480803573ffffffffffffffffffffffffffffffffffffffff1690602001909190803577ffffffffffffffffffffffffffffffffffffffffffffffff1916906020019091905050610315565b604051808215151515815260200191505060405180910390f35b6000809054906101000a900473ffffffffffffffffffffffffffffffffffffffff1681565b60005a905090565b6000809054906101000a900473ffffffffffffffffffffffffffffffffffffffff1673ffffffffffffffffffffffffffffffffffffffff163373ffffffffffffffffffffffffffffffffffffffff1614151561021b57600080fd5b600073ffffffffffffffffffffffffffffffffffffffff168173ffffffffffffffffffffffffffffffffffffffff161415151561025757600080fd5b8073ffffffffffffffffffffffffffffffffffffffff166000809054906101000a900473ffffffffffffffffffffffffffffffffffffffff1673ffffffffffffffffffffffffffffffffffffffff167f8be0079c531659141344cd1fd0a4f28419497f9722a3daafe3b4186f6b6457e060405160405180910390a3806000806101000a81548173ffffffffffffffffffffffffffffffffffffffff021916908373ffffffffffffffffffffffffffffffffffffffff16021790555050565b600082600160006101000a81548173ffffffffffffffffffffffffffffffffffffffff021916908373ffffffffffffffffffffffffffffffffffffffff160217905550600160009054906101000a900473ffffffffffffffffffffffffffffffffffffffff1673ffffffffffffffffffffffffffffffffffffffff16633370204e836040518263ffffffff167c0100000000000000000000000000000000000000000000000000000000028152600401808277ffffffffffffffffffffffffffffffffffffffffffffffff191677ffffffffffffffffffffffffffffffffffffffffffffffff19168152602001915050602060405180830381600087803b151561041e57600080fd5b5af1151561042b57600080fd5b505050604051805190509050929150505600a165627a7a7230582027699b76903bcb49d114bc52b9eaddd0ca013761d79212a9778cd9f2fefe65d70029",
      "creates": "0xe886eb111bd6be9358c8e186d198c8c444f69217",
      "publicKey": "0x2d341d4829252178727e115f31eaf9f04715e41e6f36b19102b2a4cd8ff4e1700ee73b1f988f44472063f84f5b17374a517fe28aae5480db6fbec5c99239f69f",
      "raw": "0xf9051681ef85174876e800833d09008080b904c26060604052612710600255336000806101000a81548173ffffffffffffffffffffffffffffffffffffffff021916908373ffffffffffffffffffffffffffffffffffffffff160217905550610469806100596000396000f300606060405260043610610062576000357c0100000000000000000000000000000000000000000000000000000000900463ffffffff1680638da5cb5b14610067578063cc823f54146100bc578063f2fde38b146100e5578063f48ee1ef1461011e575b600080fd5b341561007257600080fd5b61007a610193565b604051808273ffffffffffffffffffffffffffffffffffffffff1673ffffffffffffffffffffffffffffffffffffffff16815260200191505060405180910390f35b34156100c757600080fd5b6100cf6101b8565b6040518082815260200191505060405180910390f35b34156100f057600080fd5b61011c600480803573ffffffffffffffffffffffffffffffffffffffff169060200190919050506101c0565b005b341561012957600080fd5b610179600480803573ffffffffffffffffffffffffffffffffffffffff1690602001909190803577ffffffffffffffffffffffffffffffffffffffffffffffff1916906020019091905050610315565b604051808215151515815260200191505060405180910390f35b6000809054906101000a900473ffffffffffffffffffffffffffffffffffffffff1681565b60005a905090565b6000809054906101000a900473ffffffffffffffffffffffffffffffffffffffff1673ffffffffffffffffffffffffffffffffffffffff163373ffffffffffffffffffffffffffffffffffffffff1614151561021b57600080fd5b600073ffffffffffffffffffffffffffffffffffffffff168173ffffffffffffffffffffffffffffffffffffffff161415151561025757600080fd5b8073ffffffffffffffffffffffffffffffffffffffff166000809054906101000a900473ffffffffffffffffffffffffffffffffffffffff1673ffffffffffffffffffffffffffffffffffffffff167f8be0079c531659141344cd1fd0a4f28419497f9722a3daafe3b4186f6b6457e060405160405180910390a3806000806101000a81548173ffffffffffffffffffffffffffffffffffffffff021916908373ffffffffffffffffffffffffffffffffffffffff16021790555050565b600082600160006101000a81548173ffffffffffffffffffffffffffffffffffffffff021916908373ffffffffffffffffffffffffffffffffffffffff160217905550600160009054906101000a900473ffffffffffffffffffffffffffffffffffffffff1673ffffffffffffffffffffffffffffffffffffffff16633370204e836040518263ffffffff167c0100000000000000000000000000000000000000000000000000000000028152600401808277ffffffffffffffffffffffffffffffffffffffffffffffff191677ffffffffffffffffffffffffffffffffffffffffffffffff19168152602001915050602060405180830381600087803b151561041e57600080fd5b5af1151561042b57600080fd5b505050604051805190509050929150505600a165627a7a7230582027699b76903bcb49d114bc52b9eaddd0ca013761d79212a9778cd9f2fefe65d700291ca0874c825e4440b1e0f70f5e29fb885e04a4c25f7a27e4e5498088b2d918f3b5c7a07e3769fb57e92ca99512ad0422b612afc6e9e8ae27ffa3091f6d4a5fdaf9d00f",
      "r": "0x874c825e4440b1e0f70f5e29fb885e04a4c25f7a27e4e5498088b2d918f3b5c7",
      "s": "0x7e3769fb57e92ca99512ad0422b612afc6e9e8ae27ffa3091f6d4a5fdaf9d00f",
      "v": 28
    },
    {
      "hash": "0xcef4f3bd08d7e88f3e3c94cb72b06b62e8cf01966e94221b80c9e1bf1cdc0274",
      "nonce": "0x234c8",
      "blockHash": "0x0d63b941bf33febdc7722cd288558fc6721294d7e07f3176557b4fda05e12ca2",
      "blockNumber": "0x30cb48",
      "transactionIndex": "0x1",
      "from": "0xdc8f20170c0946accf9627b3eb1513cfd1c0499f",
      "to": "0x9c8c8bdda7f2411ea2dc2ca007f5ae6ec427bb50",
      "value": "0x0",
      "gasPrice": "0x4a817c800",
      "gas": "0x30d40",
      "input": "0x38bbfa50a5ebcc7d170000375239a7d0ffffa4935256a852669765c7790c4a29112b450e000000000000000000000000000000000000000000000000000000000000006000000000000000000000000000000000000000000000000000000000000000a00000000000000000000000000000000000000000000000000000000000000007c229033a7f10cb0000000000000000000000000000000000000000000000000000000000000000000000000000000000000000000000000000000000000001c14c50010498c36fc999f7a37ffffe7e4207142d9f708b96f190cfaed75133dba388ac694c2f6db039f926344c918a1d96142a95c332a5403b21e94953a9c75bc27d4290a33044022003bd07a86cb31b9beabbeefa55f9343fdff77afd840da1a43a714948c32e70d1022004f86513ff6689c5553599ccc60da62e063411e484e250545f844a0ba3d1e57ffd94fa71bc0ba10d39d464d0d8f465efeef0a2764e3887fcc9df41ded20f505c546bd9aa8ccb9855318a2fa75c6f0fd0d78dd3139c8ccf668359c818f0118b3a0000000000000000072e49cc4fe778f2e4b03c73427e80265145d0730df32d6657a534d897ea2abeb93045022100e408953234271edfbe6937885d2296d34497ccb05d9acb9a2f2b394976bdfa4e02204b7a97010843c184b1f3846125e8e7235890ccafbc8b44ac4dfe45baff1c636804def38033713f0c5b3bea0f0eeb027f6f50936fe535f841ef1fe305d4fea55884d9a251254e6256c896d4331586ff55449cadb48eddb4470aed039144741e87a1304402206d069ed4f97f6a85f472093c3d47625d260795156e6160b9affb487bef04994f02201677849756be731dd152396bf0903dc294ba37120e449024ef8faaaa4c3cec4000000000000000000000000000000000000000000000000000000000000000",
      "publicKey": "0x2531aacd3ff3b4ada135e10b2031aaf69024a10eb3a0062863a9cc07fda94148cad8866e8548431eb84764e2a400a1297d519afe26d909bca0910eb303905fe0",
      "raw": "0xf9030e830234c88504a817c80083030d40949c8c8bdda7f2411ea2dc2ca007f5ae6ec427bb5080b902a438bbfa50a5ebcc7d170000375239a7d0ffffa4935256a852669765c7790c4a29112b450e000000000000000000000000000000000000000000000000000000000000006000000000000000000000000000000000000000000000000000000000000000a00000000000000000000000000000000000000000000000000000000000000007c229033a7f10cb0000000000000000000000000000000000000000000000000000000000000000000000000000000000000000000000000000000000000001c14c50010498c36fc999f7a37ffffe7e4207142d9f708b96f190cfaed75133dba388ac694c2f6db039f926344c918a1d96142a95c332a5403b21e94953a9c75bc27d4290a33044022003bd07a86cb31b9beabbeefa55f9343fdff77afd840da1a43a714948c32e70d1022004f86513ff6689c5553599ccc60da62e063411e484e250545f844a0ba3d1e57ffd94fa71bc0ba10d39d464d0d8f465efeef0a2764e3887fcc9df41ded20f505c546bd9aa8ccb9855318a2fa75c6f0fd0d78dd3139c8ccf668359c818f0118b3a0000000000000000072e49cc4fe778f2e4b03c73427e80265145d0730df32d6657a534d897ea2abeb93045022100e408953234271edfbe6937885d2296d34497ccb05d9acb9a2f2b394976bdfa4e02204b7a97010843c184b1f3846125e8e7235890ccafbc8b44ac4dfe45baff1c636804def38033713f0c5b3bea0f0eeb027f6f50936fe535f841ef1fe305d4fea55884d9a251254e6256c896d4331586ff55449cadb48eddb4470aed039144741e87a1304402206d069ed4f97f6a85f472093c3d47625d260795156e6160b9affb487bef04994f02201677849756be731dd152396bf0903dc294ba37120e449024ef8faaaa4c3cec40000000000000000000000000000000000000000000000000000000000000001ba09a6b97081169fd0acaece184b18622dd804c9534b37572aa08680c4ac9515ad2a024039afb5d7f55a019fab4a8160274ae6cf23e86769590afcf8086212fe1fdb0",
      "r": "0x9a6b97081169fd0acaece184b18622dd804c9534b37572aa08680c4ac9515ad2",
      "s": "0x24039afb5d7f55a019fab4a8160274ae6cf23e86769590afcf8086212fe1fdb0",
      "v": 27
    }
  ],
  "uncles": [
    "0x7c308977166652bba8a9a6fce18e2aea53d6a506cdd964b7391e5de4aa147f81"
  ],
  "sealFields": [
    "0xa05c8ad4d30b3dbdd91fccaa147753f13ee1dd023c4ed062c86bc90b0c8535bf47",
    "0x883022369609608d7c"
  ]
}
```  

> go-ethereum  

```
// core/types, block.go  
type Block struct {
	header       *Header
	uncles       []*Header
	transactions Transactions

	...

	// Td is used by package core to store the total difficulty
	// of the chain up to and including the block.
	td *big.Int  // 난이도 총합(total difficulty)

// core/types, block.go
type BlockNonce [8]byte

type Header struct {
	ParentHash  common.Hash    `json:"parentHash"       gencodec:"required"`
	UncleHash   common.Hash    `json:"sha3Uncles"       gencodec:"required"`
	Coinbase    common.Address `json:"miner"            gencodec:"required"`
	Root        common.Hash    `json:"stateRoot"        gencodec:"required"`
	TxHash      common.Hash    `json:"transactionsRoot" gencodec:"required"`
	ReceiptHash common.Hash    `json:"receiptsRoot"     gencodec:"required"`
	Bloom       Bloom          `json:"logsBloom"        gencodec:"required"`
	Difficulty  *big.Int       `json:"difficulty"       gencodec:"required"`
	Number      *big.Int       `json:"number"           gencodec:"required"`
	GasLimit    uint64         `json:"gasLimit"         gencodec:"required"`
	GasUsed     uint64         `json:"gasUsed"          gencodec:"required"`
	Time        *big.Int       `json:"timestamp"        gencodec:"required"`
	Extra       []byte         `json:"extraData"        gencodec:"required"`
	MixDigest   common.Hash    `json:"mixHash"          gencodec:"required"`
	Nonce       BlockNonce     `json:"nonce"            gencodec:"required"`
}
```

> ethereumj  

```
// package org.ethereum.core;

public class BlockHeader {
    public static final int NONCE_LENGTH = 8;
    public static final int HASH_LENGTH = 32;
    public static final int ADDRESS_LENGTH = 20;
    public static final int MAX_HEADER_SIZE = 800;

    /* The SHA3 256-bit hash of the parent block, in its entirety */
    private byte[] parentHash;

    /* The SHA3 256-bit hash of the uncles list portion of this block */
    private byte[] unclesHash;

    /* The 160-bit address to which all fees collected from the
     * successful mining of this block be transferred; formally */
    private byte[] coinbase;

    /* The SHA3 256-bit hash of the root node of the state trie,
     * after all transactions are executed and finalisations applied */
    private byte[] stateRoot;

    /* The SHA3 256-bit hash of the root node of the trie structure
     * populated with each transaction in the transaction
     * list portion, the trie is populate by [key, val] --> [rlp(index), rlp(tx_recipe)]
     * of the block */
    private byte[] txTrieRoot;

    /* The SHA3 256-bit hash of the root node of the trie structure
     * populated with each transaction recipe in the transaction recipes
     * list portion, the trie is populate by [key, val] --> [rlp(index), rlp(tx_recipe)]
     * of the block */
    private byte[] receiptTrieRoot;

    /* The Bloom filter composed from indexable information
     * (logger address and log topics) contained in each log entry
     * from the receipt of each transaction in the transactions list */
    private byte[] logsBloom;

    /* A scalar value corresponding to the difficulty level of this block.
     * This can be calculated from the previous block’s difficulty level
     * and the timestamp */
    private byte[] difficulty;

    /* A scalar value equal to the reasonable output of Unix's time()
     * at this block's inception */
    private long timestamp;

    /* A scalar value equal to the number of ancestor blocks.
     * The genesis block has a number of zero */
    private long number;

    /* A scalar value equal to the current limit of gas expenditure per block */
    private byte[] gasLimit;

    /* A scalar value equal to the total gas used in transactions in this block */
    private long gasUsed;

    private byte[] mixHash;

    /* An arbitrary byte array containing data relevant to this block.
     * With the exception of the genesis block, this must be 32 bytes or fewer */
    private byte[] extraData;
    /* A 256-bit hash which proves that a sufficient amount
     * of computation has been carried out on this block */
    private byte[] nonce;

```
=> Go(Java) var name  

- ParentHash(parentHash) : 부모 블록 헤더의 해시 값  
- UncleHash(unclesHash) : 현재 블록의 엉클 블록들의 해시 값  
- Coinbase(coinbase) : 현재 블록의 마이너 어카운트 주소  
- Root(stateRoot) : 어카운트의 상태 정보가 모여 있는 머클 패트리시아 트리의 루트 노드에 대한 해시 값  
- TxHash,txTrieRoot : 현재 블록 내에 모든 트랜잭션의 머클 트리의 루트 노드에 대한 해시 값  
- ReceiptHash(receiptTrieRoot) : 현재 블록 내에 모든 트랜잭션 리시트들의 머클 트리의  
루트 노드에 대한 해시 값  
- Bloom(logsBloom) : 로그 정보들을 검색하는 데 사용하는 32바이트 블룸 필터  
(블룸 필터는 해당 블록 내에 있는 전체 트랜잭션 로그에 대한 블룸 필터)  
- Difficult(difficulty) : 현재 블록의 난이도  
- Number(number) : 현재 블록의 번호(제네시스 0 부터 1씩 증가)  
- GasLimit(gasLimit) : 블록당 현재 지급 가능한 최대 가스 총합  
- GasUsed(gasUsed) : 현재 블록 내에 트랜잭션에 의해 사용된 가스의 총합  
- Time(timestamp) : 현재 블록의 최초 생성 시간을 기록하여 블록들이 체인에 연결될 때  
시간순으로 연결되는 기준으로 사용(블록 시간을 임의로 조작할 수 없도록 함 (Unix's time()))  
- Extra(extraData) : 현재 블록과 관련된 기타 추가 정보  
- MixDigest(mixHash), Nonce(nonce) : 64비트 해시인 Nonce와 256비트 해시인 MixDigest는 함께  
사용되어 블록 생성을 위한 마이닝 작업 시 충분한 계산을 수행하는 데 이용  
















---  

# 이더리움  

<table>
<tr>
  <th>Prev Hash</th>
  <td>이전 블록의 해시 값</td>
</tr>
<tr>
  <th>Nonce</th>
  <td>작업증명 시 이용된느 64비트 해시로써 충분한 양의 계산을 위해 이용</td>
</tr>
<tr>
  <th>Timestamp</th>
  <td>유닉스 time() 함수의 출력 값으로 생성 시간 의미</td>
</tr>
<tr>
  <th>Uncles Hash</th>
  <td>블록의 엉클 목록의 SHA-3 해시(256비트)</td>
</tr>
<tr>
  <th>Beneficiary</th>
  <td>블록의 채굴 성공 시 모든 수수료(Fees)가 전송되는 160비트 주소</td>
</tr>
<tr>
  <th>Logs Bloom</th>
  <td>블룸필터(Bloom filter)는 거래 목록의 각 거래 영수증에서 각 로그 <br>
  항목에 포함된 색인 정보(로그 주소 및 주제를 기록)로 구성
  </td>
</tr>
<tr>
  <th>Difficulty</th>
  <td>블록의 난이도에 해당되는 값으로 이전 블록의 난이도 및 타임스탬프로부터 계산</td>
</tr>
<tr>
  <th>Extra Data</th>
  <td>블록과 관련된 데이터를 포함하는 임의의 바이트 배열</td>
</tr>
<tr>
  <th>Block Num</th>
  <td>상위 블록의 수</td>
</tr>
<tr>
  <th>Gas Limit</th>
  <td>블록 당 가스 비용을 제한하는 값</td>
</tr>
<tr>
  <th>Gas Used</th>
  <td>블록에서 트랜잭션에 사용된 총 가스 값</td>
</tr>
<tr>
  <th>Mix Hash</th>
  <td>충분한 양의 계산을 위해 블록에 수행되는 넌스와 작업 증명을 하는데 <br>
  이용되는 256비트 해시</td>
</tr>
<tr>
  <th>State Root</th>
  <td>모든 트랜잭션이 실행된 후 완결 짓는데 적용되는 상태 트리의 루트노드<br>
  (SHA-3 해시 값)</td>
</tr>
<tr>
  <th>Transaction Root</th>
  <td>블록의 거래 목록 부분에 각 트랜잭션으로 채워진 상태 트리의 루트노드<br>
  (SHA-3 해시 값)</td>
</tr>
<tr>
  <th>Receipt Root</th>
  <td>블록의 거래 목록 부분에 각 거래 영수증으로 채워진 상태 트리의 루트 노드<br>
  (SHA-3 해시 값)</td>
</tr>
</table>

---  

## etherparty/explorer  
https://github.com/etherparty/explorer  

## etherchain-light  
https://github.com/gobitfly/etherchain-light  

#### Blocks  

> conf  

```  
var number = web3.eth.blockNumber;
$scope.conf = number - $scope.blockNumber + " Confirmations";
if($scope.conf===0 + " Confirmations"){
  $scope.conf='Unconfirmed';
}
```  

> Gas Used  

```
$scope.gasUsed = result.gasUsed;
```  

> Gas Limit  

```
block.gasLimit
```

> Block Number  

```
$scope.number = result.number;
```  

> Received Time (timestamp)  

```
$scope.timestamp = result.timestamp;
```  

> Difficulty  

```
$scope.difficulty = ("" + result.difficulty).replace(/['"]+/g, '');
```  

> Size  

```
$scope.size = result.size;
```  

> Miner  

```  
// explorer
if(result.miner!==undefined){
  $scope.miner = result.miner;
} else{
  $scope.miner ='pending';
}

// etherchain
nameformatter.format(block.author)
```  

> Data  

```
$scope.extraData = result.extraData;
```  

> Data(Translated)  

```
$scope.dataFromHex = hex2a(result.extraData);
```  

#### Uncles  

```
a(href="uncle/" + block.hash + "/" + index) #{index + " - " + uncle}
=>
web3.eth.getUncle(req.params.hash, req.params.number, true, ...
```

---  

#### Transactions  

> From  

```
$scope.from = result.from;
```  

> To  

```
$scope.to = result.to;
```  

> XX ETH  

```
$scope.ethValue = result.value.c[0] / 10000;
```  

> Conf  

```
var number = web3.eth.blockNumber;
if($scope.blockNumber!==undefined) {
  $scope.conf = number - $scope.blockNumber;
    if($scope.conf===0) {
        //TODO change color button when unconfirmed... ng-if or ng-class
        $scope.conf='unconfirmed';  
    }
}
```  

> Received Time  

```
if($scope.blockNumber!==undefined){
  var info = web3.eth.getBlock($scope.blockNumber);
  if(info!==undefined){
    $scope.time = info.timestamp;
  }
}
```  

> Gas Used  

```
$scope.gas = result.gas;
```  

> Gas Price  

```
 $scope.gasPrice = result.gasPrice.c[0] + " WEI";
```  

> Nonce  

```
$scope.nonce = result.nonce;
```  

> Tx Price  

```
$scope.txprice = (result.gas * result.gasPrice)/1000000000000000000 + " ETH";
```  

> Input  

```
$scope.input = result.input; // that's a string
```  

---  

#### Accounts  

> balance  

```
balance: result,
```  

> balance in ether  

```
balanceInEther: web3.fromWei(result, 'ether')
```  

//etherchain  

> accounts list  

```
// get list
web3.parity.listAccounts(20, req.params.offset, ...

// get code to decide contract or not
web3.eth.getCode(account, function(err, code) ...
data[account].type = code.length > 2 ? "Contract" : "Account";

// get balance
web3.eth.getBalance(account, function(err, balance) ...
```  

---  




























<br /><br /><br /><br /><br /><br /><br /><br /><br /><br />  

---
