# Transaction  

- [1. 트랜잭션 개요](#1-트랜잭션-개요)
- [2. 트랜잭션 구조](#2-트랜잭션-구조)  

---  

# 1. 트랜잭션 개요  

트랜잭션은 다른 어카운트나 컨트랙트에 보낼 데이터 구조체로서 전자 서명으로 암호화되어 있다.  

> 트랜잭션 사용 예제  

- 다른 어카운트에게 이더 전송
- 스마트 컨트랙의 특정 함수를 호출  
- 새로운 스마트 컨트랙트 배포  

트랜잭션은 해당 “FROM” 주소를 입증하기 위해 ECDSA 서명 알고리즘을 사용하여 개인 키로 서명해야 한다.  

서명하기 위해 아래와 같은 과정이 일어난다.  

1. 서명 없이 트랜잭션 생성(논스, 가스 가격 등등..)
2. RLP 인코딩 + 해시
3. 개인키로 서명 (v, r, s 값 추가)
4. RLP 인코딩 (raw transaction)
5. 해시 (트랜잭션 해시 값)  

> web3j를 이용한 트랜잭션 서명  

```java
@Test
public void testSignTransaction() throws Exception {
    /** Private key, Public key 생성 */
    final ECKeyPair keyPair = Keys.createEcKeyPair();

    /** 서명 전 트랜잭션 */
    RawTransaction rawTransaction = RawTransaction.createTransaction(
            BigInteger.ZERO, // nonce
            BigInteger.valueOf(5000L), // gasPrice
            BigInteger.valueOf(21000L), // gasLimit
            "0xa75ca59233d89c9c22851d6ae5849da032a557aa",
            Convert.toWei("10", Unit.ETHER).toBigInteger(), // value (10 ETH)
            "" // data
    );

    /**
     * RLP 인코딩 ==> [nonce, gas price, gas limit, to, value, data]
     */
    final long chainId = 106L;
    final List<RlpType> rlpEncode = new ArrayList<>();

    rlpEncode.add(RlpString.create(rawTransaction.getNonce()));
    rlpEncode.add(RlpString.create(rawTransaction.getGasPrice()));
    rlpEncode.add(RlpString.create(rawTransaction.getGasLimit()));

    if (StringUtils.isEmpty(rawTransaction.getTo())) {
        rlpEncode.add(RlpString.create(""));
    } else {
        byte[] toByteArray = NumericUtil.hexStringToByteArray(
                NumericUtil.cleanAddressPrefix(rawTransaction.getTo()));
        rlpEncode.add(RlpString.create(toByteArray));
    }
    rlpEncode.add(RlpString.create(rawTransaction.getValue()));
    rlpEncode.add(RlpString.create(NumericUtil.hexStringToByteArray(rawTransaction.getData())));

    rlpEncode.add(RlpString.create(chainId));
    rlpEncode.add(RlpString.create(0));
    rlpEncode.add(RlpString.create(0));

    /**
     * RLP 인코딩 된 값 해시 + 서명
     * => v, s, r 값 생
     */
    final int CHAIN_ID_INC = 35;
    final int LOWER_REAL_V = 27;
    final RlpList list = new RlpList(rlpEncode);
    final SignatureData sign = Sign.signMessage(RlpEncoder.encode(list), keyPair, true);
    BigInteger v = NumericUtil.toBigInt(sign.getV());

    v = v.subtract(BigInteger.valueOf(LOWER_REAL_V))
         .add(BigInteger.valueOf(chainId * 2))
         .add(BigInteger.valueOf(CHAIN_ID_INC));
    BigInteger s = NumericUtil.toBigInt(sign.getS());
    BigInteger r = NumericUtil.toBigInt(sign.getR());

    /**
     * 서명 값이 포함 된 RLP 인코딩 => raw transaction
     * 해시 함수 => transaction hash
     */
    final List<RlpType> rlp = new ArrayList<>();

    rlp.add(RlpString.create(rawTransaction.getNonce()));
    rlp.add(RlpString.create(rawTransaction.getGasPrice()));
    rlp.add(RlpString.create(rawTransaction.getGasLimit()));

    if (StringUtils.isEmpty(rawTransaction.getTo())) {
        rlp.add(RlpString.create(""));
    } else {
        byte[] toByteArray = NumericUtil.hexStringToByteArray(
                NumericUtil.cleanAddressPrefix(rawTransaction.getTo()));
        rlp.add(RlpString.create(toByteArray));
    }
    rlp.add(RlpString.create(rawTransaction.getValue()));
    rlp.add(RlpString.create(NumericUtil.hexStringToByteArray(rawTransaction.getData())));

    rlp.add(RlpString.create(v));
    rlp.add(RlpString.create(r));
    rlp.add(RlpString.create(s));

    String rawTransactionHex = NumericUtil.toHexString(RlpEncoder.encode(new RlpList(rlp)));
    String txHash = Hash.sha3(rawTransactionHex);
}
/*
################# Raw transaction
0xf86a8082138882520894a75ca59233d89c9c22851d6ae5849da032a557aa888ac7230489e800008081f8a09f0a807200ab601b5024963e7ee6c155e4f22bb719c9eb0a617a73a6d605565ca07921f05b454e50a954b1b831edba91d329601e004c7db77c2dd9a6259794678c
################# Transaction hash
0x8e574dbde7ff0c962ffbf2b2013c14da570ff3b44a8c1990b550dc1c70892d55
*/
```  

---  

# 2. 트랜잭션 구조  

**Transaction**과 **TransactionReceipt** 가 존재하며  
TransactionReceipt는 영수증과 같이 트랜잭션의 처리 결과를 나타낸다.  

(*해당 구조체를 보기 위해 go-ethereum을 보는 것도 좋지만 Parity-ethereum의 경우 자체적으로 추가한 필드가 있어서 외부 RPC 라이브러리인 go-ethlibs로 분석*)  


> Transaction 필드  
https://github.com/INFURA/go-ethlibs/blob/master/eth/transaction.go  
(필드 오른쪽에 'json:'는 json 파싱 관련 설정)  


```go
type Transaction struct {
	BlockHash   *Hash     `json:"blockHash"`
	BlockNumber *Quantity `json:"blockNumber"`
	From        Address   `json:"from"`
	Gas         Quantity  `json:"gas"`
	GasPrice    Quantity  `json:"gasPrice"`
	Hash        Hash      `json:"hash"`
	Input       Data      `json:"input"`
	Nonce       Quantity  `json:"nonce"`
	To          *Address  `json:"to"`
	Index       *Quantity `json:"transactionIndex"`
	Value       Quantity  `json:"value"`
	V           Quantity  `json:"v"`
	R           Quantity  `json:"r"`
	S           Quantity  `json:"s"`

	// Parity Fields
	StandardV *Quantity  `json:"standardV,omitempty"`
	Raw       *Data      `json:"raw,omitempty"`
	PublicKey *Data      `json:"publicKey,omitempty"`
	ChainId   *Quantity  `json:"chainId,omitempty"`
	Creates   *Address   `json:"creates,omitempty"` // Parity wiki claims this is a Hash
	Condition *Condition `json:"condition,omitempty"`
}
```  




> Response : eth_getTransactionByHash  
("standardV" 아래의 필드는 Pairty에서 제공하는 필드)  


```json
{
  "jsonrpc": "2.0",
  "result": {
    "blockHash": "0x7be72f70966cdd4a3dd3fa470151908233423d5d6429367094e509168af1c904",
    "blockNumber": "0xb1f44a",    
    "from": "0x00140916ae81b8c75ebee92d619a085b5feb2d71",
    "gas": "0x9c40",
    "gasPrice": "0x0",
    "hash": "0x616730e1356a7fcfae221d3deac9f2ed634035d71aab1da8ac1058a3a77f81aa",
    "input": "0x",
    "nonce": "0x229",
    "to": "0x76ff4ed29a3c94e33366e83fcf8155dc36790be4",
    "transactionIndex": "0x0",
    "value": "0x7eda0602260e100000",
    "v": "0x1c",
    "r": "0xa088f47772eb896f285545c9daaa8094fafaff6d57c2177f8bfa7fa0cee07d1d",
    "s": "0x28afed5235327b0e97f6d5b1f6a8f2eb0466a695c5236c47ea223133deecf417",

    "standardV": "0x1",
    "raw": "0xf86a82022980829c409476ff4ed29a3c94e33366e83fcf8155dc36790be4897eda0602260e100000801ca0a088f47772eb896f285545c9daaa8094fafaff6d57c2177f8bfa7fa0cee07d1da028afed5235327b0e97f6d5b1f6a8f2eb0466a695c5236c47ea223133deecf417",
    "publicKey": "0x40139b0dd0f2755ffbacf1c50d66136fa566fbbd67280156f032d4647a6f2e029af3873361724aebdf5d4dd6faf54eae05d83e478e854cfc40790503587274db",
    "chainId": null,
    "condition": null,
    "creates": null,
  },
  "id": 1
}
```   

> Transaction field 설명  

| **Key**          | **Description**                                                                                                                                                                |
|------------------|--------------------------------------------------------------------------------------------------------------------------------------------------------------------------------|
| blockHash        | 해당 트랜잭션이 포함 된 블록의 해시 값 (Pending 일 경우 nil)                                                                                                                   |
| blockNumber      | 해당 트랜잭션이 포함 된 블록 넘버 (Pending 일 경우 nil)                                                                                                                        |
| from             | Transaction sender                                                                                                                                                             |
| gas              | 트랜잭션 수행 시 지급 가능한 최대 범위                                                                                                                                         |
| gasPrice         | 트랜잭션의 발신자가 각 실행 단계에서 지급하는 비용인 가스 가격(WEI)                                                                                                            |
| hash             | 트랜잭션 해시 값 RLP::encode(nonce, gasPrice, gasLimit, to, value, data, v, r, s, chainId)                                                                                     |
| input            | 옵션 필드로써 메시지 호출 시 매개변수 등이 전달                                                                                                                                |
| nonce            | Sender(from account)의 보내진 트랜잭션의 수로 0부터 시작                                                                                                                       |
| to               | Transaction receiver (컨트랙트 생성일 경우 nil)                                                                                                                                |
| transactionIndex | 블록 안에 있는 트랜잭션 리스트 중 현재 트랜잭션의 index                                                                                                                        |
| value            | 전송 할 이더의 양(WEI)                                                                                                                                                         |
| r,s,v            | Transaction from을 식별하기 위한 ECDSA 전자 서명을 만드는데 사용되는 값    V : 1바이트로 ECDSA가 복원한 공개 키 4개 중 하나 선택 할 값   R,S : 32바이트로 이루어진 서명 데이터 |     






> Transaction receipt
https://github.com/INFURA/go-ethlibs/blob/master/eth/transaction_receipt.go
https://github.com/INFURA/go-ethlibs/blob/master/eth/logs.go

```go
// eth/transaction_receipt.go
type TransactionReceipt struct {
	TransactionHash   Hash      `json:"transactionHash"`
	TransactionIndex  Quantity  `json:"transactionIndex"`
	BlockHash         Hash      `json:"blockHash"`
	BlockNumber       Quantity  `json:"blockNumber"`
	From              Address   `json:"from"`
	To                *Address  `json:"to"`
	CumulativeGasUsed Quantity  `json:"cumulativeGasUsed"`
	GasUsed           Quantity  `json:"gasUsed"`
	ContractAddress   *Address  `json:"contractAddress"`
	Logs              []Log     `json:"logs"`
	LogsBloom         Data256   `json:"logsBloom"`
	Root              *Data32   `json:"root,omitempty"`
	Status            *Quantity `json:"status,omitempty"`
}

// eth/logs.go  
type Log struct {
	Removed     bool      `json:"removed"`
	LogIndex    *Quantity `json:"logIndex"`
	TxIndex     *Quantity `json:"transactionIndex"`
	TxHash      *Hash     `json:"transactionHash"`
	BlockHash   *Hash     `json:"blockHash"`
	BlockNumber *Quantity `json:"blockNumber"`
	Address     Address   `json:"address"`
	Data        Data      `json:"data"`
	Topics      []Topic   `json:"topics"`

	// Parity-specific fields
	TxLogIndex *Quantity `json:"transactionLogIndex,omitempty"`
	Type       *string   `json:"type,omitempty"`
}

// eth/data.go  
type Data string
type Data8 Data
type Data20 Data
type Data32 Data
type Data256 Data

// Aliases
type Hash = Data32
type Topic = Data32
```  

> Response : eth_getTransactionReceipt

```json
{
  "jsonrpc": "2.0",
  "result": {
    "transactionHash": "0x2368db9c713b9e4684a47b2691bf3c4fe190a1c34145b3b43ad3e0b38290e2c1",
    "transactionIndex": "0xc0",
    "blockHash": "0x457eb6de3b785fd00e34bd5ca88528558a72293601826e556eefd4e6827ea95a",
    "blockNumber": "0x94cbb8",
    "from": "0x7dbc5395d1cb5f829bc8eca20f16bed7bceca504",
    "to": "0x8a91c9a16cd62693649d80afa85a09dbbdcb8508",
    "cumulativeGasUsed": "0x964c7d",
    "gasUsed": "0x2271c",
    "contractAddress": null,
    "logs": [
      {
        "address": "0x1149cd70ae511fc600fb7143ac2f037ac5a4c748",
        "blockHash": "0x457eb6de3b785fd00e34bd5ca88528558a72293601826e556eefd4e6827ea95a",
        "blockNumber": "0x94cbb8",
        "data": "0x00000000000000000000000000000000000000000000000000000004c670b1cc000000000000000000000000000000000000000000000015af1d78b58c40000000000000000000000000000000000000000000000000000000000000000000000000000000000000000000000000000000000000000000000000000000000000",
        "logIndex": "0xa1",
        "removed": false,
        "topics": [
          "0xe114c4517ae1e976601233d5752520282de9835d571a86e8a1f094e351734cd9"
        ],
        "transactionHash": "0x2368db9c713b9e4684a47b2691bf3c4fe190a1c34145b3b43ad3e0b38290e2c1",
        "transactionIndex": "0xc0",
        "transactionLogIndex": "0x0",
        "type": "mined"
      },
      {
        "address": "0x8a91c9a16cd62693649d80afa85a09dbbdcb8508",
        "blockHash": "0x457eb6de3b785fd00e34bd5ca88528558a72293601826e556eefd4e6827ea95a",
        "blockNumber": "0x94cbb8",
        "data": "0x0000000000000000000000000000000000000000000000000000000000000001000000000000000000000000910425f5aba02cb4959b69169238bc5fba6b8cc800000000000000000000000000000000000000000000000000000004c670b1cc",
        "logIndex": "0xa2",
        "removed": false,
        "topics": [
          "0x27294310cf0c8ae74060f07263b201200822cbf0402f54b56ff3e99150623ea8"
        ],
        "transactionHash": "0x2368db9c713b9e4684a47b2691bf3c4fe190a1c34145b3b43ad3e0b38290e2c1",
        "transactionIndex": "0xc0",
        "transactionLogIndex": "0x1",
        "type": "mined"
      }
    ],
    "logsBloom": "0x00000000000000000040000000100000000000000100000020000000000000000000000000000000000000002000000000000000000000000000000000000004000000000000000000000000000002040000000000000000000000000000000000000000000000000000000000000000000010000000000000000000000000000000010000000000000000800000000000000000000010000000000000000000000000000000000000000000000000000000000000000000000000000000000000000000000000000000000008000001000000000000000000000000000000000000000000000000000000000000000000000000000000000000000000002000",
    "status": "0x1"
  },
  "id": 1
}
```  

> Transaction receipt field 설명  

| **Key**           | **Description**                                                                                                                                    |
|-------------------|----------------------------------------------------------------------------------------------------------------------------------------------------|
| transactionHash   | Transaction 필드와 동일                                                                                                                            |
| transactionIndex  | Transaction 필드와 동일                                                                                                                            |
| blockHash         | Transaction 필드와 동일                                                                                                                            |
| blockNumber       | Transaction 필드와 동일                                                                                                                            |
| from              | Transaction 필드와 동일                                                                                                                            |
| to                | Transaction 필드와 동일                                                                                                                            |
| cumulativeGasUsed | 블록의 트랜잭션 인덱스가 0부터 현재 트랜잭션까지의 사용 된 누적 가스량 tx0 : 0x1 ==> cumulativeGasUsed : 0x1 tx1 : 0x5 ==> cumulativeGasUsed : 0x6 |
| gasUsed           | 트랜잭션 실행에 사용된 가스량                                                                                                                      |
| logs              | 트랜잭션 실행 과정에서 생성 된 로그                                                                                                                |
| logsBloom         | Logs에 저장된 로그 정보들을 빠르게 검색하는 데 사용하기 위한 블룸 필터                                                                             |
| status            | 트랜잭션 상태 (0x0 : 실패, 0x1 : 성공, 즉 블록에 포함)                                                                                             |


> Logs field 설명  

| **Key**             | **Description**                                                      |
|---------------------|----------------------------------------------------------------------|
| address             | event가 생성 된 Contract 주소                                        |
| blockHash           | Transaction 필드와 동일                                              |
| blockNumber         | Transaction 필드와 동일                                              |
| data                | 컨트랙트에 제공 된 데이터 (보통 ABI-encoded)                         |
| logIndex            | 블록에서 로그의 인덱스                                               |
| removed             |  true : 체인이 reorganization 되어 로그가 지워진 경우  false : 그 외 |
| topics              | Contract에서 제공 된 토픽 리스트                                     |
| transactionHash     | Transaction 필드와 동일                                              |
| transactionIndex    | Transaction 필드와 동일                                              |
| transactionLogIndex | 트랜잭션에서 로그의 인덱스                                           |
| type                | TODO                                                                 |  
